H00000164125VOM202002032306OMACKORDER                                                                                                                                                                                                                                                                                                                                                                                                                                                                                                                                                                                                                           
00000164125202050000466                 05791      A000001641250000000000118354000020000018456400001TERAIN   LogNumber                                                                                                                 MOTIO        0000081070500000811149        FLS000000000000000000000TXM26  00000000020200203    2020022420200302000148                                                                                                                                                        20200203                           N                                                                                                         
00000164125202050000466        ##00098             B021B26 DCP FE9 GPJ H17 KQW KSG LYX M3U PDH RFH RV6 R7W TC2 TQ5 VK3 VQK VQ1 Y3I 4SA 6K5                                                                                                                                                                                                                                                                                                                                                                                                                                                                                                                      
00000164125202050000466        ##00098             C03(GPJ) Red Quarts has Built out.                        Unable to add volume request                           (GPJ) Red Quarts has Built out.                                                                                                                                                                                                                                                                                                                                                                                                                                                             
T00000164125OMACKORDER202002032306000462                                                                                                                                                                                                                                                                                                                                                                                                                                                                                                                                                                                                                        
